:020000040800F2
:1000000090060020890100082F0D0008B90A000899
:100010002D0D00088F0200088B0D00080000000065
:10002000000000000000000000000000330D000888
:100030009102000800000000310D0008350D000895
:10004000A3010008A3010008A3010008A301000800
:10005000A3010008A3010008A3010008A3010008F0
:10006000A3010008A3010008A3010008A3010008E0
:10007000A3010008A3010008A3010008A3010008D0
:10008000A3010008A3010008A3010008A3010008C0
:10009000A3010008A3010008A3010008A3010008B0
:1000A000A3010008A3010008A3010008A3010008A0
:1000B000A3010008A3010008A3010008A301000890
:1000C000A3010008A3010008A3010008A301000880
:1000D000A3010008A3010008A3010008A301000870
:1000E000A3010008A3010008A301000800F002F822
:1000F00000F03AF80AA090E8000C82448344AAF188
:100100000107DA4501D100F02FF8AFF2090EBAE885
:100110000F0013F0010F18BFFB1A43F0010318473B
:100120004010000060100000103A24BF78C878C169
:10013000FAD8520724BF30C830C144BF04680C60ED
:10014000704700000023002400250026103A28BF35
:1001500078C1FBD8520728BF30C148BF0B60704739
:100160001FB51FBD10B510BD00F058F81146FFF7C0
:10017000F7FF00F0B5FF00F076F803B4FFF7F2FFE9
:1001800003BC00F07DF8000009488047094800479B
:10019000FEE7FEE7FEE7FEE7FEE7FEE7FEE7FEE737
:1001A000FEE7FEE704480549054A064B7047000094
:1001B000890D0008ED000008900000209006002046
:1001C00090020020900200204FF0000200B513467C
:1001D00094469646203922BFA0E80C50A0E80C5067
:1001E000B1F12001BFF4F7AF090728BFA0E80C5018
:1001F00048BF0CC05DF804EB890028BF40F8042B11
:1002000008BF704748BF20F8022B11F0804F18BF7D
:1002100000F8012B7047704770477047754600F033
:100220002BF8AE4605006946534620F00700854688
:1002300018B020B5FFF7B6FFBDE820404FF000062C
:100240004FF000074FF000084FF0000B21F00701BE
:10025000AC46ACE8C009ACE8C009ACE8C009ACE801
:10026000C0098D46704710B50446AFF300802046A4
:10027000BDE81040FFF781BF004870472C00002008
:1002800001491820ABBEFEE7260002007047FEE7DA
:100290007047000070B5044600F010F90546601C78
:1002A00002D004480078044400F008F9401BA04242
:1002B000FAD370BD1C0000202DE9F84FDFF8B8918B
:1002C0000024A9F1040B23460F2709F1040AABF11E
:1002D000040EC9E00125A5402A40AA427DD1674EFF
:1002E000D1F804C0ACEB0608B44532D014DCBCF144
:1002F000030F3AD009DCBCF1000F2AD0BCF1010F8A
:100300001CD0BCF1020F31D11DE0BCF1110F17D090
:10031000BCF1120F2AD119E0B8F5881F19D006DCFC
:10032000B8F5803F15D0B8F5801F1FD111E0B8F5A2
:10033000001F0ED0B8F5041F18D10AE0CB6815E0F5
:10034000CB681B1D12E0CB6808330FE0CB680C3381
:100350000CE08B682BB1012B4FF0080303D04561F3
:1003600004E0042302E0056100E00023FF2A01D835
:10037000064601E000F104064FEA840501D9A5F123
:100380002005D6F8008007FA05FC28EA0C0803FAD5
:1003900005F548EA0508C6F800804D68ED0062D50D
:1003A000374DAE6946F00106AE61AD6924F0030633
:1003B00005F001050095334D06EB050CDCF80850FF
:1003C000A607360F07FA06F825EA0805DFF8B88011
:1003D000404503D14FF0000817E044E0DFF8AC805F
:1003E000404502D14FF001080FE0DFF8A4804045FE
:1003F00002D14FF0020808E0DFF89880404502D1B2
:100400004FF0030801E04FF0040808FA06F848EA44
:100410000508CCF808804D68D9F80060ED024D461B
:1004200001D5164300E096432E604D68DAF800606F
:10043000AD02554601D5164300E096432E604D6847
:10044000DBF80060AD035D4601D5164300E096433E
:100450002E604D68DEF80060ED03754601D5164349
:1004600000E096432E60641C0D682A46E5407FF448
:1004700031AFBDE8F88F0000080401400000111002
:10048000001002400000014000080140000C014043
:1004900000100140001401408068084000D0012095
:1004A0007047C26821EA02030A4043EA024101613F
:1004B00070470AB1016170470904FBE70148806891
:1004C000704700001C000020024881680278114437
:1004D000816070471C000020074810B5016841F09A
:1004E00010010160032000F075F8002000F006F80C
:1004F00000F024F8002010BD0020024070B50D4D22
:1005000004464FF47A712878B1FBF0F00A49096883
:10051000B1FBF0F000F0BCFA48B9102C07D2002271
:100520002146501E00F036F800206C6070BD01209E
:1005300070BD00001C000020280000200C4808B5F9
:10054000816941F001018161816901F0010100913E
:10055000C16941F08051C161C06900F080500090D4
:100560000448416821F0E06141F00071416008BD3C
:100570000010024000000140002809DB00F01F02CB
:10058000012191404009800000F1E020C0F80011F5
:1005900070470000F0B40E4B1B680C46C3F30223F7
:1005A000C3F10705042D00D90425191D072901D21F
:1005B000002300E0DB1E012606FA05F1491E21405A
:1005C00099409E40761E16403143F0BC00F0DEBBE1
:1005D0000CED00E0064900F0070208684FF6FF0343
:1005E000184040EA0220034A1043086070470000A8
:1005F0000CED00E00000FA052DE9F0470F4605007C
:1006000061D0434E306800F00700B84209D230682C
:1006100020F0070038433060306800F00700B8422F
:1006200051D128683B4C810712D5400703D560683B
:1006300040F4E06060602878000703D5606840F40B
:10064000605060606068A96820F0F0000843606056
:100650002878C00728D06868012810D021680228AF
:1006600010D0890700292EDA616821F003010143C7
:100670006160FFF723FF804641F288390DE0216871
:100680008903EFE78901EDE7FFF718FFA0EB080109
:10069000494502D90320BDE8F0876068696800F029
:1006A0000C00B0EB810FEFD1306800F00700B842CA
:1006B0000BD9306820F0070038433060306800F014
:1006C0000700B84201D00120E5E72878400705D5AA
:1006D0006068E96820F4E0600843606028780007FB
:1006E00006D56068296920F4605040EAC100606066
:1006F00000F018F86168084AC1F30311515CC84062
:100700000649086006480068FFF7F8FE0020C2E7C7
:1007100000200240001002404E1100082800002076
:10072000200000200E4A51680E4801F00C03042BF3
:1007300011D0082B0FD10C48C1F38343C903C05C0F
:100740000AD55168084AC1F34041921E515C054ADE
:100750005043B0FBF1F07047044948437047000034
:100760000010024000127A003E11000800093D000E
:100770002DE9F84F040070D02078C04DC00749D053
:100780006868C0F38100012807D06868C0F3810061
:10079000022809D16868C00306D52868800339D5C6
:1007A00060680028E7D035E06068B0F5803F0BD086
:1007B00010B1B0F5A02F11D0286820F48030286047
:1007C000286820F4802002E0286840F48030286007
:1007D000606890B1FFF772FE06460AE0286840F4B0
:1007E00080202860F0E700BFFFF768FE801B6428C8
:1007F00073D828688003F7D50CE0FFF75FFE064644
:1008000005E000BFFFF75AFE801B6428F0D8286877
:100810008003F7D420789A4E80074FF001094FF0FB
:10082000000839D5686810F00C0F07D06868C0F36D
:100830008100022809D16868C00306D428688007AF
:1008400014D52069012808D110E02069B0B1C6F89C
:100850000090FFF733FE074605E00AE1FFF72EFEA2
:10086000C01B0228C4D828688007F7D528686169AA
:1008700020F0F80040EAC10028600DE0C6F80080D2
:10088000FFF71CFE074604E0FFF718FEC01B022816
:1008900023D828688007F7D4207800072CD579481A
:1008A000A169D9B1C0F80090FFF708FE074604E03F
:1008B000FFF704FEC01B02280FD8686A8007F7D52F
:1008C00071484FF4FA510068B0FBF1F0009000BF9E
:1008D0000098411E0091FAD20EE080E0C0F800803E
:1008E000FFF7ECFD074604E0FFF7E8FDC01B022818
:1008F00075D8686A8007F7D42078400760D5E86922
:100900000027C00008D4E86940F08050E861E86939
:10091000012700F0805000905C480168C90513D49D
:100920000168834641F480710160FFF7C7FD82468C
:1009300006E000BFFFF7C2FDA0EB0A0064284ED816
:10094000DBF80000C005F5D5E06801280AD008B141
:10095000052813D0286A20F001002862286A20F0B8
:10096000040002E0286A40F001002862E06841F2D9
:10097000883B98B1FFF7A2FD82460BE0286A40F061
:1009800004002862EEE700BFFFF798FDA0EB0A0124
:1009900059455AD8286A8007F6D50CE0FFF78EFD36
:1009A000824605E0FFF78AFDA0EB0A0159454CD8C5
:1009B000286A8007F6D41FB1E86920F08050E8610A
:1009C000E06988B36968C1F38101022944D0022833
:1009D000C6F8608004D0FFF771FD044638E034E0CB
:1009E000FFF76CFD074604E0FFF768FDC01B022817
:1009F0002BD828688001F7D4206AB0F5803F05D154
:100A00006868A16820F4003008436860D4E90801F0
:100A10000843696821F4741108436860C6F860905F
:100A2000FFF74CFD044606E025E000BFFFF746FD5A
:100A3000001B022809D828688001F7D51BE000BFF9
:100A4000FFF73CFD001B022802D90320BDE8F88F08
:100A500028688001F4D40EE00128F7D06868226A83
:100A600000F48031914204D1616A00F47010884230
:100A700001D00120EAE70020E8E700000010024072
:100A800000004242800442422800002000700040E2
:100A900010B5401EB0F1807F01D3012010BD4FF092
:100AA000E02460610F21601700F070F90020A06160
:100AB00007202061002010BDFEE7000070B504464D
:100AC0004FF40045002229462148FFF7F2FC214E51
:100AD000012229463046FFF7ECFC04F00102012117
:100AE0003046FFF7E6FC04F0020202213046FFF731
:100AF000E0FC04F0040208213046FFF7DAFC04F0C1
:100B0000080210213046FFF7D4FC04F01002202127
:100B10003046FFF7CEFC04F0200240213046FFF7BC
:100B2000C8FC04F0400280213046FFF7C2FC04F00C
:100B30008002E9113046FFF7BCFC0022294630460E
:100B4000FFF7B7FCBDE870400A20FFF7A3BB000029
:100B500000080140000C014070B501220446D50395
:100B600029462148FFF7A5FC204E012229463046A0
:100B7000FFF79FFC04F0010201213046FFF799FCCA
:100B800004F0020202213046FFF793FC04F0040255
:100B900008213046FFF78DFC04F008021021304692
:100BA000FFF787FC04F0100220213046FFF781FC9C
:100BB00004F0200240213046FFF77BFC04F04002A5
:100BC00080213046FFF775FC04F08002E9113046C1
:100BD000FFF76FFC002229463046FFF76AFCBDE8AC
:100BE00070400A20FFF756BB00080140000C01408E
:100BF00010B50020FFF762FF0320FFF75FFF022020
:100C0000FFF75CFF0620FFF759FF0C20FFF756FFA8
:100C10008020FFF753FF3820FFF750FFBDE810405A
:100C20000120FFF74BBF000010B5044603E000BFF2
:100C3000FFF792FF641C20780028F9D110BD000056
:100C40002DE9F04786B000243348009401940294C3
:100C50000394816941F010018161816901F0100103
:100C60000491816941F004018161816901F004010D
:100C70000491816941F0080181618069DFF89CA0DD
:100C800000F0080049F6FF16049000223146504655
:100C9000FFF70FFCDFF888904FF6FB77002239460C
:100CA0004846FFF706FC4FF4005000901D48CDE980
:100CB0000104DFF8748069464046FFF7FDFA4FF4FF
:100CC000404001258DE8310069464046FFF7F4FABF
:100CD000CDE900650226CDE9024669465046FFF798
:100CE000EBFA00970396CDE9015469464846FFF7B1
:100CF000E3FA6802CDE90004694650460294FFF722
:100D0000DBFA002201212820FFF744FC2820FFF70E
:100D100033FC06B0BDE8F087001002400008014037
:100D2000000C01400000111000100140FEE7FEE73A
:100D300070477047FFF7C8BB10B590B028216846D0
:100D4000FFF742FA14210AA8FFF73EFA02200090AA
:100D50000120049010200024059007946846FFF7B6
:100D600007FD08B172B6FEE70F20CDE90A040C9426
:100D70000D9400210AA80E94FFF73EFC002801D034
:100D800072B6FEE710B010BD7047FEE70907090E06
:100D9000002804DB00F1E02080F80014704700F028
:100DA0000F0000F1E02080F8141D70472DE9F0419C
:100DB000204C00224FF400712046FFF77AFBE51427
:100DC000002229462046FFF774FBA6140022314674
:100DD0002046FFF76EFB0022E9002046FFF769FB83
:100DE000154F002280213846FFF763FB0022A11532
:100DF0003846FFF75EFB002229463846FFF759FBCD
:100E0000002231463846FFF754FB0120FFF756FE1B
:100E10000AA0FFF709FF21152046FFF742FB6114E6
:100E20002046FFF73EFBBDE8F0414FF47A70FFF734
:100E300031BA0000000C01400008014063686520E1
:100E4000646F2062616E2064656D00002DE9F05FC3
:100E50005148D0E9005187686E187C1A0120FFF7CD
:100E60002DFE4EA0FFF7E0FEDFF840A14FF4805BBF
:100E70004FF40078DFF8389142E041465046FFF7E2
:100E80000BFB00283ED0002241464846FFF711FBED
:100E900000224FF480614846FFF70BFB0122D1028C
:100EA0004846FFF706FB002D10DD01225946484653
:100EB000FFF7FFFA00224FF400514846FFF7F9FA16
:100EC00000224FF480414846FFF7F3FA29463046A6
:100ED00000F070F86D1EA6F1010611D500225946EA
:100EE0004D464846FFF7E5FA012251032846FFF731
:100EF000E0FA00224FF480412846FFF7DAFA002595
:100F0000002EBADA43E0464641465046FFF7C4FA9F
:100F100000283ED0002259464D464846FFF7C9FA00
:100F200000224FF400512846FFF7C3FA0122910333
:100F30002846FFF7BEFA002C10DD01223146284674
:100F4000FFF7B7FA00224FF480612846FFF7B1FAA5
:100F500000224FF400612846FFF7ABFA21463846DD
:100F600000F028F8641EA7F1010710D500223146D1
:100F70002846FFF79EFA012291022846FFF799FAC8
:100F800000224FF400612846FFF793FA0024002F57
:100F9000B9DABDE8F09F000000000020636865201A
:100FA000646F2062616E206E676179000008014005
:100FB000000C01402DE9F05F0A2291FBF2F391FB56
:100FC000F2F902FB131890FBF2F190FBF2F602FB30
:100FD0001107DFF8A0B0284C0025012280215846D7
:100FE000FFF767FAA05D00F049F80A20FFF752F911
:100FF000002280215846FFF75CFA4FF4807A0122E4
:1010000051465846FFF755FAE05D00F037F80A20E0
:10101000FFF740F9002251465846FFF74AFA4FF4CD
:10102000006A012251465846FFF743FA14F80900B6
:1010300000F024F80A20FFF72DF900225146584607
:10104000FFF737FA4FF4805A012251465846FFF70E
:1010500030FA14F8080000F011F80A20FFF71AF926
:10106000002251465846FFF724FA6D1C192DB4DBB7
:10107000BDE8F09F000801401000002070B5174D3A
:10108000044600F0010201212846FFF712FA04F09D
:10109000020202212846FFF70CFA04F004020421A0
:1010A0002846FFF706FA04F0080208212846FFF751
:1010B00000FA04F0100210212846FFF7FAF904F0B4
:1010C000200220212846FFF7F4F904F040022846C8
:1010D000BDE870404021FFF7ECB900000008014076
:1010E000FFF7FAF9FFF728FEFFF7AAFDFFF780FDEB
:1010F000104D114C4FF40076002731462846FFF77B
:10110000CBF960B931462846FFF7C6F90028F9D077
:10111000E068401CE060012801DDE76006E0E0686F
:1011200020B10128E9D1FFF741FEE6E7FFF78EFE87
:10113000E3E7000000080140000000200102020374
:101140000405060708090A0B0C0D0E0F101000000D
:101150000000000000000102030406070809000067
:1011600080110008000000202C0000002801000869
:10117000AC1100082C0000206406000044010008A7
:101180000A000000030000000A0000000000000048
:10119000C0F9A4B0999282F880900000010000008C
:0C11A00010000000000000000024F4001B
:04000005080000ED02
:00000001FF
